S01C0000464153544553545F46494E4745525F46495253542E73726563ED
S11300000C942A000C943F000C943F000C943F0085
S11300100C943F000C943F000C943F000C943F0060
S11300200C943F000C943F000C943F000C943F0050
S11300300C943F000C943F000C943F000C943F0040
S11300400C943F000C943F000C943F000C943F0030
S11300500C943F0011241FBECFE5D4E0DEBFCDBF1A
S113006010E0A0E6B0E0EEE0F2E002C005900D92F0
S1130070A639B107D9F70E9487000C9405010C94A6
S1130080000088BBA898A998AA9A8FE493EC0197DA
S1130090F1F700C00000AA988FE493EC0197F1F700
S11300A000C00000089588BBA89AA998AA9A8FE472
S11300B093EC0197F1F700C00000AA988FE493EC49
S11300C00197F1F700C000000895EF92FF920F939B
S11300D01F93CF93DF938C017C01C0E0D0E006C076
S11300E0F70181917F010E9453002196F80101904C
S11300F00020E9F73197E01BF10BCE17DF0784F3FB
S1130100DF91CF911F910F91FF90EF9008951ABA4C
S11301108FEF8BBB81BB84BB87BB88E30E9441000C
S11301208CE00E9441000F2EF5E6CF2EF0E0DF2E8A
S1130130F02D0F2EF4E6AF2EF0E0BF2EF02D0F2E93
S1130140F3E6EF2EF0E0FF2EF02D02E610E0C1E61C
S1130150D0E0C8990FC081E00E944100888182BB31
S1130160AB9AAC98AD98AE98AF988AE690E00E94AE
S11301706500EFCFC99910C081E00E944100F801E9
S1130180808182BBAB98AC9AAD98AE98AF9885E766
S113019090E00E946500DDCFCA9910C081E00E9402
S11301A04100F701808182BBAB98AC98AD9AAE98C0
S11301B0AF9880E890E00E946500CBCFCB990CC04B
S11301C081E00E944100F501808182BBAB98AC982C
S11301D0AD98AE9AAF98BDCFCC9910C081E00E9483
S11301E04100F601808182BBAB98AC98AD98AE9883
S11301F0AF9A8BE890E00E946500ABCF81E00E944B
S1110200410012BA15BA18BAA4CFF894FFCF71
S113020EFC60DAF266B6BEE0FEF6312E504C415971
S113021E4552203100322E504C4159455220320065
S113022E332E504C41594552203300352E504C41FB
S109023E59455220350071
S9030000FC
