:100000000C942A000C9434000C9434000C943400AA
:100010000C9434000C9434000C9434000C94340090
:100020000C9434000C9434000C9434000C94340080
:100030000C9434000C9434000C9434000C94340070
:100040000C9434000C9434000C9434000C94340060
:100050000C94340011241FBECFE5D4E0DEBFCDBF29
:100060000E9459000C9480000C940000909A919882
:10007000929A939808959098919A9298939A089545
:1000800090989198929A93980895909A91989298AE
:10009000939808959098919A929A93980895909A27
:1000A00091989298939A089590989198929893988D
:1000B00008951ABA8FEF81BB8BBBC89903C00E9409
:1000C0003600FBCFC99903C00E943B00F6CFCA9906
:1000D00003C00E944000F1CFCB9903C00E944500AD
:1000E000ECCFCC9903C00E944A00E7CFCD9903C062
:1000F0000E944F00E2CFCE99E0CF0E945400DDCFA6
:04010000F894FFCFA1
:00000001FF
